{
  "_format": "hh-sol-artifact-1",
  "contractName": "BuyMeAMatcha",
  "sourceName": "contracts/BuyMeAMatcha.sol",
  "abi": [
    {
      "inputs": [],
      "stateMutability": "nonpayable",
      "type": "constructor"
    },
    {
      "anonymous": false,
      "inputs": [
        {
          "indexed": true,
          "internalType": "address",
          "name": "from",
          "type": "address"
        },
        {
          "indexed": false,
          "internalType": "uint256",
          "name": "timestamp",
          "type": "uint256"
        },
        {
          "indexed": false,
          "internalType": "string",
          "name": "name",
          "type": "string"
        },
        {
          "indexed": false,
          "internalType": "string",
          "name": "message",
          "type": "string"
        }
      ],
      "name": "NewMemo",
      "type": "event"
    },
    {
      "anonymous": false,
      "inputs": [
        {
          "indexed": true,
          "internalType": "address",
          "name": "previousOwner",
          "type": "address"
        },
        {
          "indexed": true,
          "internalType": "address",
          "name": "newOwner",
          "type": "address"
        }
      ],
      "name": "OwnershipTransferred",
      "type": "event"
    },
    {
      "inputs": [
        {
          "internalType": "string",
          "name": "_name",
          "type": "string"
        },
        {
          "internalType": "string",
          "name": "_message",
          "type": "string"
        },
        {
          "internalType": "bytes",
          "name": "proof",
          "type": "bytes"
        }
      ],
      "name": "buyMatcha",
      "outputs": [],
      "stateMutability": "payable",
      "type": "function"
    },
    {
      "inputs": [],
      "name": "getBalance",
      "outputs": [
        {
          "internalType": "uint256",
          "name": "",
          "type": "uint256"
        }
      ],
      "stateMutability": "view",
      "type": "function"
    },
    {
      "inputs": [],
      "name": "getMemos",
      "outputs": [
        {
          "components": [
            {
              "internalType": "address",
              "name": "from",
              "type": "address"
            },
            {
              "internalType": "uint256",
              "name": "timestamp",
              "type": "uint256"
            },
            {
              "internalType": "string",
              "name": "name",
              "type": "string"
            },
            {
              "internalType": "string",
              "name": "message",
              "type": "string"
            }
          ],
          "internalType": "struct BuyMeAMatcha.Memo[]",
          "name": "",
          "type": "tuple[]"
        }
      ],
      "stateMutability": "view",
      "type": "function"
    },
    {
      "inputs": [],
      "name": "owner",
      "outputs": [
        {
          "internalType": "address",
          "name": "",
          "type": "address"
        }
      ],
      "stateMutability": "view",
      "type": "function"
    },
    {
      "inputs": [],
      "name": "renounceOwnership",
      "outputs": [],
      "stateMutability": "nonpayable",
      "type": "function"
    },
    {
      "inputs": [
        {
          "internalType": "address",
          "name": "validator",
          "type": "address"
        }
      ],
      "name": "setHumanityValidator",
      "outputs": [],
      "stateMutability": "nonpayable",
      "type": "function"
    },
    {
      "inputs": [
        {
          "internalType": "address",
          "name": "newOwner",
          "type": "address"
        }
      ],
      "name": "transferOwnership",
      "outputs": [],
      "stateMutability": "nonpayable",
      "type": "function"
    },
    {
      "inputs": [
        {
          "internalType": "address payable",
          "name": "_to",
          "type": "address"
        }
      ],
      "name": "withdrawMoneyTo",
      "outputs": [],
      "stateMutability": "nonpayable",
      "type": "function"
    },
    {
      "inputs": [],
      "name": "withdrawTips",
      "outputs": [],
      "stateMutability": "nonpayable",
      "type": "function"
    }
  ],
  "bytecode": "0x60806040523480156200001157600080fd5b5062000032620000266200009e60201b60201c565b620000a660201b60201c565b33600460006101000a81548173ffffffffffffffffffffffffffffffffffffffff021916908373ffffffffffffffffffffffffffffffffffffffff16021790555062000098739064071eab7c22e00e2d63233a9507d7107cfcd16200016a60201b60201c565b620002e9565b600033905090565b60008060009054906101000a900473ffffffffffffffffffffffffffffffffffffffff169050816000806101000a81548173ffffffffffffffffffffffffffffffffffffffff021916908373ffffffffffffffffffffffffffffffffffffffff1602179055508173ffffffffffffffffffffffffffffffffffffffff168173ffffffffffffffffffffffffffffffffffffffff167f8be0079c531659141344cd1fd0a4f28419497f9722a3daafe3b4186f6b6457e060405160405180910390a35050565b6200017a6200009e60201b60201c565b73ffffffffffffffffffffffffffffffffffffffff16620001a06200023d60201b60201c565b73ffffffffffffffffffffffffffffffffffffffff1614620001f9576040517f08c379a0000000000000000000000000000000000000000000000000000000008152600401620001f0906200028d565b60405180910390fd5b80600260006101000a81548173ffffffffffffffffffffffffffffffffffffffff021916908373ffffffffffffffffffffffffffffffffffffffff16021790555050565b60008060009054906101000a900473ffffffffffffffffffffffffffffffffffffffff16905090565b600062000275602083620002af565b91506200028282620002c0565b602082019050919050565b60006020820190508181036000830152620002a88162000266565b9050919050565b600082825260208201905092915050565b7f4f776e61626c653a2063616c6c6572206973206e6f7420746865206f776e6572600082015250565b6121d880620002f96000396000f3fe6080604052600436106100865760003560e01c8063865c517211610059578063865c51721461010d5780638da5cb5b14610138578063b60c896c14610163578063dfc3e18b1461018c578063f2fde38b146101a857610086565b80630ff8d8a51461008b57806312065fe0146100b45780633aaa74b2146100df578063715018a6146100f6575b600080fd5b34801561009757600080fd5b506100b260048036038101906100ad9190611362565b6101d1565b005b3480156100c057600080fd5b506100c9610222565b6040516100d69190611a3e565b60405180910390f35b3480156100eb57600080fd5b506100f461022a565b005b34801561010257600080fd5b5061010b61028c565b005b34801561011957600080fd5b50610122610314565b60405161012f9190611877565b60405180910390f35b34801561014457600080fd5b5061014d6104f7565b60405161015a919061185c565b60405180910390f35b34801561016f57600080fd5b5061018a60048036038101906101859190611335565b610520565b005b6101a660048036038101906101a1919061138f565b6105e0565b005b3480156101b457600080fd5b506101cf60048036038101906101ca9190611335565b610823565b005b8073ffffffffffffffffffffffffffffffffffffffff166108fc6101f3610222565b9081150290604051600060405180830381858888f1935050505015801561021e573d6000803e3d6000fd5b5050565b600047905090565b600460009054906101000a900473ffffffffffffffffffffffffffffffffffffffff1673ffffffffffffffffffffffffffffffffffffffff166108fc479081150290604051600060405180830381858888f1935050505061028a57600080fd5b565b61029461091b565b73ffffffffffffffffffffffffffffffffffffffff166102b26104f7565b73ffffffffffffffffffffffffffffffffffffffff1614610308576040517f08c379a00000000000000000000000000000000000000000000000000000000081526004016102ff906119de565b60405180910390fd5b6103126000610923565b565b60606003805480602002602001604051908101604052809291908181526020016000905b828210156104ee57838290600052602060002090600402016040518060800160405290816000820160009054906101000a900473ffffffffffffffffffffffffffffffffffffffff1673ffffffffffffffffffffffffffffffffffffffff1673ffffffffffffffffffffffffffffffffffffffff168152602001600182015481526020016002820180546103cb90611d9d565b80601f01602080910402602001604051908101604052809291908181526020018280546103f790611d9d565b80156104445780601f1061041957610100808354040283529160200191610444565b820191906000526020600020905b81548152906001019060200180831161042757829003601f168201915b5050505050815260200160038201805461045d90611d9d565b80601f016020809104026020016040519081016040528092919081815260200182805461048990611d9d565b80156104d65780601f106104ab576101008083540402835291602001916104d6565b820191906000526020600020905b8154815290600101906020018083116104b957829003601f168201915b50505050508152505081526020019060010190610338565b50505050905090565b60008060009054906101000a900473ffffffffffffffffffffffffffffffffffffffff16905090565b61052861091b565b73ffffffffffffffffffffffffffffffffffffffff166105466104f7565b73ffffffffffffffffffffffffffffffffffffffff161461059c576040517f08c379a0000000000000000000000000000000000000000000000000000000008152600401610593906119de565b60405180910390fd5b80600260006101000a81548173ffffffffffffffffffffffffffffffffffffffff021916908373ffffffffffffffffffffffffffffffffffffffff16021790555050565b818161060f8282600260009054906101000a900473ffffffffffffffffffffffffffffffffffffffff166109e7565b61061e5761061d6001610ac0565b5b6000828260405161063092919061181d565b604051809103902090506001600082815260200190815260200160002060009054906101000a900460ff161561066b5761066a6002610ac0565b5b600180600083815260200190815260200160002060006101000a81548160ff021916908315150217905550600034116106d9576040517f08c379a00000000000000000000000000000000000000000000000000000000081526004016106d090611a1e565b60405180910390fd5b600360405180608001604052803373ffffffffffffffffffffffffffffffffffffffff16815260200142815260200189815260200188815250908060018154018082558091505060019003906000526020600020906004020160009091909190915060008201518160000160006101000a81548173ffffffffffffffffffffffffffffffffffffffff021916908373ffffffffffffffffffffffffffffffffffffffff1602179055506020820151816001015560408201518160020190805190602001906107a89291906111a2565b5060608201518160030190805190602001906107c59291906111a2565b5050503373ffffffffffffffffffffffffffffffffffffffff167fc56140e05f516509ae28110e0f72e17558a7561630dad2647c3ae87d986e365c42898960405161081293929190611a59565b60405180910390a250505050505050565b61082b61091b565b73ffffffffffffffffffffffffffffffffffffffff166108496104f7565b73ffffffffffffffffffffffffffffffffffffffff161461089f576040517f08c379a0000000000000000000000000000000000000000000000000000000008152600401610896906119de565b60405180910390fd5b600073ffffffffffffffffffffffffffffffffffffffff168173ffffffffffffffffffffffffffffffffffffffff16141561090f576040517f08c379a00000000000000000000000000000000000000000000000000000000081526004016109069061193e565b60405180910390fd5b61091881610923565b50565b600033905090565b60008060009054906101000a900473ffffffffffffffffffffffffffffffffffffffff169050816000806101000a81548173ffffffffffffffffffffffffffffffffffffffff021916908373ffffffffffffffffffffffffffffffffffffffff1602179055508173ffffffffffffffffffffffffffffffffffffffff168173ffffffffffffffffffffffffffffffffffffffff167f8be0079c531659141344cd1fd0a4f28419497f9722a3daafe3b4186f6b6457e060405160405180910390a35050565b60008073ffffffffffffffffffffffffffffffffffffffff168273ffffffffffffffffffffffffffffffffffffffff161415610a2857610a276002610bc5565b5b6000806000610a378787610cca565b9250925092506000610a8282610a748686604051602001610a599291906117f1565b60405160208183030381529060405280519060200120610d87565b610db790919063ffffffff16565b90508073ffffffffffffffffffffffffffffffffffffffff168673ffffffffffffffffffffffffffffffffffffffff16149450505050509392505050565b60006002811115610ad457610ad3611e43565b5b816002811115610ae757610ae6611e43565b5b1415610af257610bc2565b60016002811115610b0657610b05611e43565b5b816002811115610b1957610b18611e43565b5b1415610b5a576040517f08c379a0000000000000000000000000000000000000000000000000000000008152600401610b51906119be565b60405180910390fd5b600280811115610b6d57610b6c611e43565b5b816002811115610b8057610b7f611e43565b5b1415610bc1576040517f08c379a0000000000000000000000000000000000000000000000000000000008152600401610bb89061199e565b60405180910390fd5b5b50565b60006002811115610bd957610bd8611e43565b5b816002811115610bec57610beb611e43565b5b1415610bf757610cc7565b60016002811115610c0b57610c0a611e43565b5b816002811115610c1e57610c1d611e43565b5b1415610c5f576040517f08c379a0000000000000000000000000000000000000000000000000000000008152600401610c569061191e565b60405180910390fd5b600280811115610c7257610c71611e43565b5b816002811115610c8557610c84611e43565b5b1415610cc6576040517f08c379a0000000000000000000000000000000000000000000000000000000008152600401610cbd906119fe565b60405180910390fd5b5b50565b600080606060658585905014610ce557610ce46001610bc5565b5b8484600090602092610cf993929190611b7b565b90610d049190611c9d565b92508484602090602492610d1a93929190611b7b565b90610d259190611cfc565b91508484602490606592610d3b93929190611b7b565b8080601f016020809104026020016040519081016040528093929190818152602001838380828437600081840152601f19601f8201169050808301925050505050505090509250925092565b600081604051602001610d9a9190611836565b604051602081830303815290604052805190602001209050919050565b6000806000610dc68585610dde565b91509150610dd381610e61565b819250505092915050565b600080604183511415610e205760008060006020860151925060408601519150606086015160001a9050610e1487828585611036565b94509450505050610e5a565b604083511415610e51576000806020850151915060408501519050610e46868383611143565b935093505050610e5a565b60006002915091505b9250929050565b60006004811115610e7557610e74611e43565b5b816004811115610e8857610e87611e43565b5b1415610e9357611033565b60016004811115610ea757610ea6611e43565b5b816004811115610eba57610eb9611e43565b5b1415610efb576040517f08c379a0000000000000000000000000000000000000000000000000000000008152600401610ef2906118de565b60405180910390fd5b60026004811115610f0f57610f0e611e43565b5b816004811115610f2257610f21611e43565b5b1415610f63576040517f08c379a0000000000000000000000000000000000000000000000000000000008152600401610f5a906118fe565b60405180910390fd5b60036004811115610f7757610f76611e43565b5b816004811115610f8a57610f89611e43565b5b1415610fcb576040517f08c379a0000000000000000000000000000000000000000000000000000000008152600401610fc29061195e565b60405180910390fd5b600480811115610fde57610fdd611e43565b5b816004811115610ff157610ff0611e43565b5b1415611032576040517f08c379a00000000000000000000000000000000000000000000000000000000081526004016110299061197e565b60405180910390fd5b5b50565b6000807f7fffffffffffffffffffffffffffffff5d576e7357a4501ddfe92f46681b20a08360001c111561107157600060039150915061113a565b601b8560ff16141580156110895750601c8560ff1614155b1561109b57600060049150915061113a565b6000600187878787604051600081526020016040526040516110c09493929190611899565b6020604051602081039080840390855afa1580156110e2573d6000803e3d6000fd5b505050602060405103519050600073ffffffffffffffffffffffffffffffffffffffff168173ffffffffffffffffffffffffffffffffffffffff1614156111315760006001925092505061113a565b80600092509250505b94509492505050565b60008060007f7fffffffffffffffffffffffffffffffffffffffffffffffffffffffffffffff60001b841690506000601b60ff8660001c901c6111869190611bb6565b905061119487828885611036565b935093505050935093915050565b8280546111ae90611d9d565b90600052602060002090601f0160209004810192826111d05760008555611217565b82601f106111e957805160ff1916838001178555611217565b82800160010185558215611217579182015b828111156112165782518255916020019190600101906111fb565b5b5090506112249190611228565b5090565b5b80821115611241576000816000905550600101611229565b5090565b600061125861125384611ac3565b611a9e565b90508281526020810184848401111561127457611273611ee9565b5b61127f848285611d5b565b509392505050565b60008135905061129681612174565b92915050565b6000813590506112ab8161218b565b92915050565b60008083601f8401126112c7576112c6611ed5565b5b8235905067ffffffffffffffff8111156112e4576112e3611ed0565b5b602083019150836001820283011115611300576112ff611ee4565b5b9250929050565b600082601f83011261131c5761131b611ed5565b5b813561132c848260208601611245565b91505092915050565b60006020828403121561134b5761134a611ef3565b5b600061135984828501611287565b91505092915050565b60006020828403121561137857611377611ef3565b5b60006113868482850161129c565b91505092915050565b600080600080606085870312156113a9576113a8611ef3565b5b600085013567ffffffffffffffff8111156113c7576113c6611eee565b5b6113d387828801611307565b945050602085013567ffffffffffffffff8111156113f4576113f3611eee565b5b61140087828801611307565b935050604085013567ffffffffffffffff81111561142157611420611eee565b5b61142d878288016112b1565b925092505092959194509250565b6000611447838361175a565b905092915050565b61145881611c0c565b82525050565b61146781611c0c565b82525050565b600061147882611b04565b6114828185611b32565b93508360208202850161149485611af4565b8060005b858110156114d057848403895281516114b1858261143b565b94506114bc83611b25565b925060208a01995050600181019050611498565b50829750879550505050505092915050565b6114eb81611c30565b82525050565b6115026114fd82611c30565b611e00565b82525050565b61151961151482611c3a565b611e0a565b82525050565b600061152b8385611b43565b9350611538838584611d5b565b82840190509392505050565b600061154f82611b1a565b6115598185611b4e565b9350611569818560208601611d6a565b61157281611ef8565b840191505092915050565b600061158882611b1a565b6115928185611b5f565b93506115a2818560208601611d6a565b6115ab81611ef8565b840191505092915050565b60006115c3601883611b5f565b91506115ce82611f16565b602082019050919050565b60006115e6601f83611b5f565b91506115f182611f3f565b602082019050919050565b6000611609601c83611b70565b915061161482611f68565b601c82019050919050565b600061162c601983611b5f565b915061163782611f91565b602082019050919050565b600061164f602683611b5f565b915061165a82611fba565b604082019050919050565b6000611672602283611b5f565b915061167d82612009565b604082019050919050565b6000611695602283611b5f565b91506116a082612058565b604082019050919050565b60006116b8602083611b5f565b91506116c3826120a7565b602082019050919050565b60006116db601e83611b5f565b91506116e6826120d0565b602082019050919050565b60006116fe602083611b5f565b9150611709826120f9565b602082019050919050565b6000611721601983611b5f565b915061172c82612122565b602082019050919050565b6000611744601b83611b5f565b915061174f8261214b565b602082019050919050565b6000608083016000830151611772600086018261144f565b50602083015161178560208601826117c4565b506040830151848203604086015261179d8282611544565b915050606083015184820360608601526117b78282611544565b9150508091505092915050565b6117cd81611c86565b82525050565b6117dc81611c86565b82525050565b6117eb81611c90565b82525050565b60006117fd82856114f1565b60208201915061180d8284611508565b6004820191508190509392505050565b600061182a82848661151f565b91508190509392505050565b6000611841826115fc565b915061184d82846114f1565b60208201915081905092915050565b6000602082019050611871600083018461145e565b92915050565b60006020820190508181036000830152611891818461146d565b905092915050565b60006080820190506118ae60008301876114e2565b6118bb60208301866117e2565b6118c860408301856114e2565b6118d560608301846114e2565b95945050505050565b600060208201905081810360008301526118f7816115b6565b9050919050565b60006020820190508181036000830152611917816115d9565b9050919050565b600060208201905081810360008301526119378161161f565b9050919050565b6000602082019050818103600083015261195781611642565b9050919050565b6000602082019050818103600083015261197781611665565b9050919050565b6000602082019050818103600083015261199781611688565b9050919050565b600060208201905081810360008301526119b7816116ab565b9050919050565b600060208201905081810360008301526119d7816116ce565b9050919050565b600060208201905081810360008301526119f7816116f1565b9050919050565b60006020820190508181036000830152611a1781611714565b9050919050565b60006020820190508181036000830152611a3781611737565b9050919050565b6000602082019050611a5360008301846117d3565b92915050565b6000606082019050611a6e60008301866117d3565b8181036020830152611a80818561157d565b90508181036040830152611a94818461157d565b9050949350505050565b6000611aa8611ab9565b9050611ab48282611dcf565b919050565b6000604051905090565b600067ffffffffffffffff821115611ade57611add611ea1565b5b611ae782611ef8565b9050602081019050919050565b6000819050602082019050919050565b600081519050919050565b600082905092915050565b600081519050919050565b6000602082019050919050565b600082825260208201905092915050565b600081905092915050565b600082825260208201905092915050565b600082825260208201905092915050565b600081905092915050565b60008085851115611b8f57611b8e611edf565b5b83861115611ba057611b9f611eda565b5b6001850283019150848603905094509492505050565b6000611bc182611c86565b9150611bcc83611c86565b9250827fffffffffffffffffffffffffffffffffffffffffffffffffffffffffffffffff03821115611c0157611c00611e14565b5b828201905092915050565b6000611c1782611c66565b9050919050565b6000611c2982611c66565b9050919050565b6000819050919050565b60007fffffffff0000000000000000000000000000000000000000000000000000000082169050919050565b600073ffffffffffffffffffffffffffffffffffffffff82169050919050565b6000819050919050565b600060ff82169050919050565b6000611ca98383611b0f565b82611cb48135611c30565b92506020821015611cf457611cef7fffffffffffffffffffffffffffffffffffffffffffffffffffffffffffffffff83602003600802611f09565b831692505b505092915050565b6000611d088383611b0f565b82611d138135611c3a565b92506004821015611d5357611d4e7fffffffff0000000000000000000000000000000000000000000000000000000083600403600802611f09565b831692505b505092915050565b82818337600083830152505050565b60005b83811015611d88578082015181840152602081019050611d6d565b83811115611d97576000848401525b50505050565b60006002820490506001821680611db557607f821691505b60208210811415611dc957611dc8611e72565b5b50919050565b611dd882611ef8565b810181811067ffffffffffffffff82111715611df757611df6611ea1565b5b80604052505050565b6000819050919050565b6000819050919050565b7f4e487b7100000000000000000000000000000000000000000000000000000000600052601160045260246000fd5b7f4e487b7100000000000000000000000000000000000000000000000000000000600052602160045260246000fd5b7f4e487b7100000000000000000000000000000000000000000000000000000000600052602260045260246000fd5b7f4e487b7100000000000000000000000000000000000000000000000000000000600052604160045260246000fd5b600080fd5b600080fd5b600080fd5b600080fd5b600080fd5b600080fd5b600080fd5b600080fd5b6000601f19601f8301169050919050565b600082821b905092915050565b7f45434453413a20696e76616c6964207369676e61747572650000000000000000600082015250565b7f45434453413a20696e76616c6964207369676e6174757265206c656e67746800600082015250565b7f19457468657265756d205369676e6564204d6573736167653a0a333200000000600082015250565b7f506f483a20496e76616c69642070726f6f66206c656e67746800000000000000600082015250565b7f4f776e61626c653a206e6577206f776e657220697320746865207a65726f206160008201527f6464726573730000000000000000000000000000000000000000000000000000602082015250565b7f45434453413a20696e76616c6964207369676e6174757265202773272076616c60008201527f7565000000000000000000000000000000000000000000000000000000000000602082015250565b7f45434453413a20696e76616c6964207369676e6174757265202776272076616c60008201527f7565000000000000000000000000000000000000000000000000000000000000602082015250565b7f506f483a204469736361726465642070726f6f662d6f662d68756d616e697479600082015250565b7f506f483a20496e76616c69642070726f6f662d6f662d68756d616e6974790000600082015250565b7f4f776e61626c653a2063616c6c6572206973206e6f7420746865206f776e6572600082015250565b7f506f483a2056616c696461746f72206973206e6f742073657400000000000000600082015250565b7f63616e277420627579206d617463686120776974682030206574680000000000600082015250565b61217d81611c0c565b811461218857600080fd5b50565b61219481611c1e565b811461219f57600080fd5b5056fea2646970667358221220e0bbb80164f3b328e3ffbf88cbe7d14b229b85db07a00b03365160f8f909afcd64736f6c63430008050033",
  "linkReferences": {},
  "deployedLinkReferences": {}
}